{
  "contractName": "MultiTransfer",
  "abi": [
    {
      "inputs": [
        {
          "internalType": "contract ERC20",
          "name": "_address",
          "type": "address"
        }
      ],
      "stateMutability": "nonpayable",
      "type": "constructor"
    },
    {
      "anonymous": false,
      "inputs": [
        {
          "indexed": true,
          "internalType": "address",
          "name": "previousOwner",
          "type": "address"
        },
        {
          "indexed": true,
          "internalType": "address",
          "name": "newOwner",
          "type": "address"
        }
      ],
      "name": "OwnershipTransferred",
      "type": "event"
    },
    {
      "inputs": [
        {
          "internalType": "uint256",
          "name": "",
          "type": "uint256"
        }
      ],
      "name": "addresses",
      "outputs": [
        {
          "internalType": "address",
          "name": "",
          "type": "address"
        }
      ],
      "stateMutability": "view",
      "type": "function",
      "constant": true
    },
    {
      "inputs": [
        {
          "internalType": "uint256",
          "name": "",
          "type": "uint256"
        }
      ],
      "name": "amounts",
      "outputs": [
        {
          "internalType": "uint256",
          "name": "",
          "type": "uint256"
        }
      ],
      "stateMutability": "view",
      "type": "function",
      "constant": true
    },
    {
      "inputs": [],
      "name": "claimOwnership",
      "outputs": [],
      "stateMutability": "nonpayable",
      "type": "function"
    },
    {
      "inputs": [],
      "name": "owner",
      "outputs": [
        {
          "internalType": "address",
          "name": "",
          "type": "address"
        }
      ],
      "stateMutability": "view",
      "type": "function",
      "constant": true
    },
    {
      "inputs": [],
      "name": "pendingOwner",
      "outputs": [
        {
          "internalType": "address",
          "name": "",
          "type": "address"
        }
      ],
      "stateMutability": "view",
      "type": "function",
      "constant": true
    },
    {
      "inputs": [],
      "name": "queuepassed",
      "outputs": [
        {
          "internalType": "uint256",
          "name": "",
          "type": "uint256"
        }
      ],
      "stateMutability": "view",
      "type": "function",
      "constant": true
    },
    {
      "inputs": [],
      "name": "tokenToTansfer",
      "outputs": [
        {
          "internalType": "contract ERC20",
          "name": "",
          "type": "address"
        }
      ],
      "stateMutability": "view",
      "type": "function",
      "constant": true
    },
    {
      "inputs": [
        {
          "internalType": "address",
          "name": "newOwner",
          "type": "address"
        },
        {
          "internalType": "bool",
          "name": "direct",
          "type": "bool"
        },
        {
          "internalType": "bool",
          "name": "renounce",
          "type": "bool"
        }
      ],
      "name": "transferOwnership",
      "outputs": [],
      "stateMutability": "nonpayable",
      "type": "function"
    },
    {
      "inputs": [
        {
          "internalType": "address[]",
          "name": "_addresses",
          "type": "address[]"
        }
      ],
      "name": "setAddresses",
      "outputs": [],
      "stateMutability": "nonpayable",
      "type": "function"
    },
    {
      "inputs": [
        {
          "internalType": "uint256[]",
          "name": "_amounts",
          "type": "uint256[]"
        }
      ],
      "name": "setAmounts",
      "outputs": [],
      "stateMutability": "nonpayable",
      "type": "function"
    },
    {
      "inputs": [
        {
          "internalType": "uint256",
          "name": "numberOfTranfersInThisTx",
          "type": "uint256"
        }
      ],
      "name": "distribute",
      "outputs": [],
      "stateMutability": "nonpayable",
      "type": "function"
    },
    {
      "inputs": [],
      "name": "getAddressesLength",
      "outputs": [
        {
          "internalType": "uint256",
          "name": "",
          "type": "uint256"
        }
      ],
      "stateMutability": "view",
      "type": "function",
      "constant": true
    },
    {
      "inputs": [],
      "name": "getAmountsLength",
      "outputs": [
        {
          "internalType": "uint256",
          "name": "",
          "type": "uint256"
        }
      ],
      "stateMutability": "view",
      "type": "function",
      "constant": true
    }
  ],
  "bytecode": "0x608060405234801561001057600080fd5b506040516108e23803806108e28339818101604052602081101561003357600080fd5b5051600080546001600160a01b0319163390811782556040519091907f8be0079c531659141344cd1fd0a4f28419497f9722a3daafe3b4186f6b6457e0908290a3600280546001600160a01b039092166001600160a01b03199283161790556000805490911633179055610836806100ac6000396000f3fe608060405234801561001057600080fd5b50600436106100cf5760003560e01c80638bc9d2b11161008c578063b957172111610066578063b95717211461023f578063cbf78f47146102e2578063e30c3978146102ea578063edf26d9b146102f2576100cf565b80638bc9d2b1146102125780638da5cb5b1461021a57806391c05b0b14610222576100cf565b8063078dfbe7146100d45780632834ef491461010c5780634331153c1461012657806345f0a44f146101c95780634cebc56b146101e65780634e71e0c81461020a575b600080fd5b61010a600480360360608110156100ea57600080fd5b506001600160a01b0381351690602081013515159060400135151561030f565b005b610114610457565b60408051918252519081900360200190f35b61010a6004803603602081101561013c57600080fd5b81019060208101813564010000000081111561015757600080fd5b82018360208201111561016957600080fd5b8035906020019184602083028401116401000000008311171561018b57600080fd5b91908080602002602001604051908101604052809392919081815260200183836020028082843760009201919091525092955061045d945050505050565b610114600480360360208110156101df57600080fd5b50356104a6565b6101ee6104c4565b604080516001600160a01b039092168252519081900360200190f35b61010a6104d3565b610114610595565b6101ee61059b565b61010a6004803603602081101561023857600080fd5b50356105aa565b61010a6004803603602081101561025557600080fd5b81019060208101813564010000000081111561027057600080fd5b82018360208201111561028257600080fd5b803590602001918460208302840111640100000000831117156102a457600080fd5b919080806020026020016040519081016040528093929190818152602001838360200280828437600092019190915250929550610680945050505050565b6101146106df565b6101ee6106e5565b6101ee6004803603602081101561030857600080fd5b50356106f4565b6000546001600160a01b0316331461036e576040805162461bcd60e51b815260206004820181905260248201527f4f776e61626c653a2063616c6c6572206973206e6f7420746865206f776e6572604482015290519081900360640190fd5b8115610436576001600160a01b0383161515806103885750805b6103d1576040805162461bcd60e51b81526020600482015260156024820152744f776e61626c653a207a65726f206164647265737360581b604482015290519081900360640190fd5b600080546040516001600160a01b03808716939216917f8be0079c531659141344cd1fd0a4f28419497f9722a3daafe3b4186f6b6457e091a3600080546001600160a01b0385166001600160a01b031991821617909155600180549091169055610452565b600180546001600160a01b0319166001600160a01b0385161790555b505050565b60045490565b60005b81518110156104a257600482828151811061047757fe5b6020908102919091018101518254600181810185556000948552929093209092019190915501610460565b5050565b600481815481106104b357fe5b600091825260209091200154905081565b6002546001600160a01b031681565b6001546001600160a01b0316338114610533576040805162461bcd60e51b815260206004820181905260248201527f4f776e61626c653a2063616c6c657220213d2070656e64696e67206f776e6572604482015290519081900360640190fd5b600080546040516001600160a01b03808516939216917f8be0079c531659141344cd1fd0a4f28419497f9722a3daafe3b4186f6b6457e091a3600080546001600160a01b039092166001600160a01b0319928316179055600180549091169055565b60055481565b6000546001600160a01b031681565b6000546001600160a01b03163314610609576040805162461bcd60e51b815260206004820181905260248201527f4f776e61626c653a2063616c6c6572206973206e6f7420746865206f776e6572604482015290519081900360640190fd5b60005b8181116104a25760045460055410156106785761066e60036005548154811061063157fe5b9060005260206000200160009054906101000a90046001600160a01b031660046005548154811061065e57fe5b906000526020600020015461071b565b6005805460010190555b60010161060c565b60005b81518110156104a257600382828151811061069a57fe5b60209081029190910181015182546001808201855560009485529290932090920180546001600160a01b0319166001600160a01b039093169290921790915501610683565b60035490565b6001546001600160a01b031681565b6003818154811061070157fe5b6000918252602090912001546001600160a01b0316905081565b6002546040805163a9059cbb60e01b81526001600160a01b038581166004830152602482018590529151600093929092169163a9059cbb9160448082019260209290919082900301818787803b15801561077457600080fd5b505af1158015610788573d6000803e3d6000fd5b505050506040513d602081101561079e57600080fd5b50519050806104525760405162461bcd60e51b81526004018080602001828103825260228152602001806107df6022913960400191505060405180910390fdfe73616665546f6b656e5472616e736665723a207472616e73666572206661696c6564a26469706673582212203ce44a1255ace91ad31e0d46104c116d0b5bd342f4f3ec2d00ed79494ff87e0164736f6c634300060c0033",
  "immutableReferences": {},
  "source": "// SPDX-License-Identifier: MIT\npragma solidity 0.6.12;\n\nimport \"./Ownable.sol\";\nimport \"@openzeppelin/contracts/token/ERC20/ERC20.sol\";\nimport \"@openzeppelin/contracts/math/SafeMath.sol\";\n\n\ncontract MultiTransfer is Ownable {\n   using SafeMath for uint256;\n\n     ERC20 public tokenToTansfer;\n     address[] public addresses;\n     uint256[] public amounts;\n     uint256 public queuepassed;\n\n\n    constructor(ERC20 _address) public{\n       tokenToTansfer = _address;\n       owner = msg.sender;\n    }\n\n    function setAddresses(address[] memory _addresses)public{\n        uint256 index;\n        while(index < _addresses.length){\n            addresses.push(_addresses[index]);\n            index++;\n        }\n    }\n    function setAmounts(uint256[] memory _amounts)public{\n        uint256 index;\n        while(index < _amounts.length){\n            amounts.push(_amounts[index]);\n            index++;\n        }\n    }\n    function distribute(uint256 numberOfTranfersInThisTx) external onlyOwner{\n        uint256 i;\n        while(i <= numberOfTranfersInThisTx){\n            if(queuepassed < amounts.length){\n                safeTokenTransfer(addresses[queuepassed], amounts[queuepassed]);\n                 queuepassed += 1;\n            }\n            i++;\n        }\n        //numberOfTranfersInThisTx;\n    }\n\n    function getAddressesLength()public view returns(uint256){\n        return addresses.length;\n\n    }\n\n    function getAmountsLength()public view returns(uint256){\n        return amounts.length;\n\n    }\n\n    function safeTokenTransfer(address _to, uint256 _amount) internal {\n        bool transferSuccess = false;\n        transferSuccess = tokenToTansfer.transfer(_to, _amount);\n        require(transferSuccess, \"safeTokenTransfer: transfer failed\");\n    }\n\n\n   }\n",
  "sourcePath": "/opt/oxswap/latest/chainox-core/contracts/MultiTransfer.sol",
  "compiler": {
    "name": "solc",
    "version": "0.6.12+commit.27d51765.Emscripten.clang"
  },
  "schemaVersion": "3.4.4",
  "updatedAt": "2022-02-08T08:40:55.056Z",
  "networkType": "ethereum",
  "devdoc": {
    "kind": "dev",
    "methods": {},
    "version": 1
  },
  "userdoc": {
    "kind": "user",
    "methods": {},
    "version": 1
  }
}